{
  "contractName": "HerbalMedicine",
  "abi": [
    {
      "inputs": [],
      "payable": false,
      "stateMutability": "nonpayable",
      "type": "constructor"
    },
    {
      "constant": false,
      "inputs": [
        {
          "internalType": "string",
          "name": "_name",
          "type": "string"
        }
      ],
      "name": "registerAccount",
      "outputs": [],
      "payable": false,
      "stateMutability": "nonpayable",
      "type": "function"
    },
    {
      "constant": true,
      "inputs": [],
      "name": "getAccountCount",
      "outputs": [
        {
          "internalType": "uint256",
          "name": "",
          "type": "uint256"
        }
      ],
      "payable": false,
      "stateMutability": "view",
      "type": "function"
    },
    {
      "constant": true,
      "inputs": [
        {
          "internalType": "uint256",
          "name": "_addressKey",
          "type": "uint256"
        }
      ],
      "name": "getAccountAddress",
      "outputs": [
        {
          "internalType": "address",
          "name": "accountAddress",
          "type": "address"
        }
      ],
      "payable": false,
      "stateMutability": "view",
      "type": "function"
    },
    {
      "constant": false,
      "inputs": [
        {
          "internalType": "address",
          "name": "_account",
          "type": "address"
        }
      ],
      "name": "allowAccount",
      "outputs": [],
      "payable": false,
      "stateMutability": "nonpayable",
      "type": "function"
    },
    {
      "constant": false,
      "inputs": [
        {
          "internalType": "address",
          "name": "_account",
          "type": "address"
        }
      ],
      "name": "removeAccount",
      "outputs": [],
      "payable": false,
      "stateMutability": "nonpayable",
      "type": "function"
    },
    {
      "constant": true,
      "inputs": [
        {
          "internalType": "address",
          "name": "_address",
          "type": "address"
        }
      ],
      "name": "getAccounts",
      "outputs": [
        {
          "internalType": "address",
          "name": "accountAddress",
          "type": "address"
        },
        {
          "internalType": "string",
          "name": "name",
          "type": "string"
        },
        {
          "internalType": "enum HerbalMedicine.AccountRole",
          "name": "role",
          "type": "uint8"
        },
        {
          "internalType": "bool",
          "name": "isMember",
          "type": "bool"
        }
      ],
      "payable": false,
      "stateMutability": "view",
      "type": "function"
    },
    {
      "constant": true,
      "inputs": [],
      "name": "getPackageCount",
      "outputs": [
        {
          "internalType": "uint256",
          "name": "",
          "type": "uint256"
        }
      ],
      "payable": false,
      "stateMutability": "view",
      "type": "function"
    },
    {
      "constant": true,
      "inputs": [
        {
          "internalType": "uint256",
          "name": "_packageKey",
          "type": "uint256"
        }
      ],
      "name": "getPackage",
      "outputs": [
        {
          "internalType": "uint256",
          "name": "_key",
          "type": "uint256"
        },
        {
          "internalType": "uint256",
          "name": "_barcode",
          "type": "uint256"
        },
        {
          "internalType": "string",
          "name": "_name",
          "type": "string"
        },
        {
          "internalType": "string",
          "name": "_description",
          "type": "string"
        },
        {
          "internalType": "uint256",
          "name": "_historyKey",
          "type": "uint256"
        },
        {
          "internalType": "uint256",
          "name": "_transferCount",
          "type": "uint256"
        },
        {
          "internalType": "address",
          "name": "currentHandler",
          "type": "address"
        },
        {
          "internalType": "address",
          "name": "currentReciever",
          "type": "address"
        }
      ],
      "payable": false,
      "stateMutability": "view",
      "type": "function"
    },
    {
      "constant": true,
      "inputs": [
        {
          "internalType": "uint256",
          "name": "_historyKey",
          "type": "uint256"
        },
        {
          "internalType": "uint256",
          "name": "_transferKey",
          "type": "uint256"
        }
      ],
      "name": "getTransfer",
      "outputs": [
        {
          "internalType": "address",
          "name": "source",
          "type": "address"
        },
        {
          "internalType": "address",
          "name": "destination",
          "type": "address"
        },
        {
          "internalType": "uint256",
          "name": "_time",
          "type": "uint256"
        }
      ],
      "payable": false,
      "stateMutability": "view",
      "type": "function"
    },
    {
      "constant": false,
      "inputs": [
        {
          "internalType": "uint256",
          "name": "_barcode",
          "type": "uint256"
        },
        {
          "internalType": "string",
          "name": "_name",
          "type": "string"
        },
        {
          "internalType": "string",
          "name": "_description",
          "type": "string"
        }
      ],
      "name": "createPackage",
      "outputs": [],
      "payable": false,
      "stateMutability": "nonpayable",
      "type": "function"
    },
    {
      "constant": false,
      "inputs": [
        {
          "internalType": "uint256",
          "name": "_packageKey",
          "type": "uint256"
        },
        {
          "internalType": "address",
          "name": "_packageReciever",
          "type": "address"
        }
      ],
      "name": "sendPackage",
      "outputs": [],
      "payable": false,
      "stateMutability": "nonpayable",
      "type": "function"
    },
    {
      "constant": false,
      "inputs": [
        {
          "internalType": "uint256",
          "name": "_packageKey",
          "type": "uint256"
        }
      ],
      "name": "recievePackage",
      "outputs": [],
      "payable": false,
      "stateMutability": "nonpayable",
      "type": "function"
    }
  ],
  "bytecode": "0x60806040523480156200001157600080fd5b50600660008154809291906001019190505550336000806101000a81548173ffffffffffffffffffffffffffffffffffffffff021916908373ffffffffffffffffffffffffffffffffffffffff1602179055506040518060a001604052803373ffffffffffffffffffffffffffffffffffffffff1681526020016040518060400160405280600781526020017f4c696b6861697400000000000000000000000000000000000000000000000000815250815260200160006001811115620000d457fe5b815260200160011515815260200160011515815250600160003373ffffffffffffffffffffffffffffffffffffffff1673ffffffffffffffffffffffffffffffffffffffff16815260200190815260200160002060008201518160000160006101000a81548173ffffffffffffffffffffffffffffffffffffffff021916908373ffffffffffffffffffffffffffffffffffffffff16021790555060208201518160010190805190602001906200018d92919062000255565b5060408201518160020160006101000a81548160ff02191690836001811115620001b357fe5b021790555060608201518160020160016101000a81548160ff02191690831515021790555060808201518160020160026101000a81548160ff0219169083151502179055509050503360026000600654815260200190815260200160002060006101000a81548173ffffffffffffffffffffffffffffffffffffffff021916908373ffffffffffffffffffffffffffffffffffffffff16021790555062000304565b828054600181600116156101000203166002900490600052602060002090601f016020900481019282601f106200029857805160ff1916838001178555620002c9565b82800160010185558215620002c9579182015b82811115620002c8578251825591602001919060010190620002ab565b5b509050620002d89190620002dc565b5090565b6200030191905b80821115620002fd576000816000905550600101620002e3565b5090565b90565b61265880620003146000396000f3fe608060405234801561001057600080fd5b50600436106100b45760003560e01c80639eb87dec116100715780639eb87dec14610497578063a98e4e77146104b5578063b99dfe18146104d3578063bff6de2014610668578063c4740a9514610723578063db4cf8e614610767576100b4565b8063025fb963146100b95780631acc948c1461016b5780633100ceb5146101af57806331e05361146102bf578063571dfa7b1461041b57806386d1583b14610449575b600080fd5b6100ef600480360360408110156100cf57600080fd5b8101908080359060200190929190803590602001909291905050506107d5565b604051808473ffffffffffffffffffffffffffffffffffffffff1673ffffffffffffffffffffffffffffffffffffffff1681526020018373ffffffffffffffffffffffffffffffffffffffff1673ffffffffffffffffffffffffffffffffffffffff168152602001828152602001935050505060405180910390f35b6101ad6004803603602081101561018157600080fd5b81019080803573ffffffffffffffffffffffffffffffffffffffff1690602001909291905050506109cf565b005b6101f1600480360360208110156101c557600080fd5b81019080803573ffffffffffffffffffffffffffffffffffffffff169060200190929190505050610aee565b604051808573ffffffffffffffffffffffffffffffffffffffff1673ffffffffffffffffffffffffffffffffffffffff1681526020018060200184600181111561023757fe5b60ff16815260200183151515158152602001828103825285818151815260200191508051906020019080838360005b83811015610281578082015181840152602081019050610266565b50505050905090810190601f1680156102ae5780820380516001836020036101000a031916815260200191505b509550505050505060405180910390f35b610419600480360360608110156102d557600080fd5b8101908080359060200190929190803590602001906401000000008111156102fc57600080fd5b82018360208201111561030e57600080fd5b8035906020019184600183028401116401000000008311171561033057600080fd5b91908080601f016020809104026020016040519081016040528093929190818152602001838380828437600081840152601f19601f8201169050808301925050505050505091929192908035906020019064010000000081111561039357600080fd5b8201836020820111156103a557600080fd5b803590602001918460018302840111640100000000831117156103c757600080fd5b91908080601f016020809104026020016040519081016040528093929190818152602001838380828437600081840152601f19601f820116905080830192505050505050509192919290505050610d94565b005b6104476004803603602081101561043157600080fd5b8101908080359060200190929190505050611263565b005b6104956004803603604081101561045f57600080fd5b8101908080359060200190929190803573ffffffffffffffffffffffffffffffffffffffff1690602001909291905050506116eb565b005b61049f6119e7565b6040518082815260200191505060405180910390f35b6104bd611aba565b6040518082815260200191505060405180910390f35b6104ff600480360360208110156104e957600080fd5b8101908080359060200190929190505050611b86565b6040518089815260200188815260200180602001806020018781526020018681526020018573ffffffffffffffffffffffffffffffffffffffff1673ffffffffffffffffffffffffffffffffffffffff1681526020018473ffffffffffffffffffffffffffffffffffffffff1673ffffffffffffffffffffffffffffffffffffffff168152602001838103835289818151815260200191508051906020019080838360005b838110156105bf5780820151818401526020810190506105a4565b50505050905090810190601f1680156105ec5780820380516001836020036101000a031916815260200191505b50838103825288818151815260200191508051906020019080838360005b8381101561062557808201518184015260208101905061060a565b50505050905090810190601f1680156106525780820380516001836020036101000a031916815260200191505b509a505050505050505050505060405180910390f35b6107216004803603602081101561067e57600080fd5b810190808035906020019064010000000081111561069b57600080fd5b8201836020820111156106ad57600080fd5b803590602001918460018302840111640100000000831117156106cf57600080fd5b91908080601f016020809104026020016040519081016040528093929190818152602001838380828437600081840152601f19601f820116905080830192505050505050509192919290505050611ee6565b005b6107656004803603602081101561073957600080fd5b81019080803573ffffffffffffffffffffffffffffffffffffffff1690602001909291905050506121c2565b005b6107936004803603602081101561077d57600080fd5b81019080803590602001909291905050506122e2565b604051808273ffffffffffffffffffffffffffffffffffffffff1673ffffffffffffffffffffffffffffffffffffffff16815260200191505060405180910390f35b600080600060011515600160003373ffffffffffffffffffffffffffffffffffffffff1673ffffffffffffffffffffffffffffffffffffffff16815260200190815260200160002060020160019054906101000a900460ff161515146108a3576040517f08c379a00000000000000000000000000000000000000000000000000000000081526004018080602001828103825260158152602001807f596f7520617265206e6f742061206d656d6265722e000000000000000000000081525060200191505060405180910390fd5b6108ab6123e1565b60056000600460008981526020019081526020016000206000888152602001908152602001600020600001548152602001908152602001600020604051806080016040529081600082015481526020016001820160009054906101000a900473ffffffffffffffffffffffffffffffffffffffff1673ffffffffffffffffffffffffffffffffffffffff1673ffffffffffffffffffffffffffffffffffffffff1681526020016002820160009054906101000a900473ffffffffffffffffffffffffffffffffffffffff1673ffffffffffffffffffffffffffffffffffffffff1673ffffffffffffffffffffffffffffffffffffffff1681526020016003820154815250509050806020015181604001518260600151935093509350509250925092565b6000809054906101000a900473ffffffffffffffffffffffffffffffffffffffff1673ffffffffffffffffffffffffffffffffffffffff163373ffffffffffffffffffffffffffffffffffffffff1614610a91576040517f08c379a00000000000000000000000000000000000000000000000000000000081526004018080602001828103825260158152602001807f596f7520617265206e6f7420746865206f776e6572000000000000000000000081525060200191505060405180910390fd5b60018060008373ffffffffffffffffffffffffffffffffffffffff1673ffffffffffffffffffffffffffffffffffffffff16815260200190815260200160002060020160016101000a81548160ff02191690831515021790555050565b6000606060008060011515600160003373ffffffffffffffffffffffffffffffffffffffff1673ffffffffffffffffffffffffffffffffffffffff16815260200190815260200160002060020160019054906101000a900460ff16151514610bbe576040517f08c379a00000000000000000000000000000000000000000000000000000000081526004018080602001828103825260158152602001807f596f7520617265206e6f742061206d656d6265722e000000000000000000000081525060200191505060405180910390fd5b610bc6612435565b600160008773ffffffffffffffffffffffffffffffffffffffff1673ffffffffffffffffffffffffffffffffffffffff1681526020019081526020016000206040518060a00160405290816000820160009054906101000a900473ffffffffffffffffffffffffffffffffffffffff1673ffffffffffffffffffffffffffffffffffffffff1673ffffffffffffffffffffffffffffffffffffffff168152602001600182018054600181600116156101000203166002900480601f016020809104026020016040519081016040528092919081815260200182805460018160011615610100020316600290048015610cff5780601f10610cd457610100808354040283529160200191610cff565b820191906000526020600020905b815481529060010190602001808311610ce257829003601f168201915b505050505081526020016002820160009054906101000a900460ff166001811115610d2657fe5b6001811115610d3157fe5b81526020016002820160019054906101000a900460ff161515151581526020016002820160029054906101000a900460ff161515151581525050905080600001518160200151826040015183606001518292509450945094509450509193509193565b60011515600160003373ffffffffffffffffffffffffffffffffffffffff1673ffffffffffffffffffffffffffffffffffffffff16815260200190815260200160002060020160019054906101000a900460ff16151514610e5d576040517f08c379a00000000000000000000000000000000000000000000000000000000081526004018080602001828103825260158152602001807f596f7520617265206e6f742061206d656d6265722e000000000000000000000081525060200191505060405180910390fd5b60086000815480929190600101919050555060076000815480929190600101919050555060096000815480929190600101919050555060405180610100016040528060075481526020018481526020018381526020018281526020016008548152602001600181526020013373ffffffffffffffffffffffffffffffffffffffff168152602001600073ffffffffffffffffffffffffffffffffffffffff1681525060036000600754815260200190815260200160002060008201518160000155602082015181600101556040820151816002019080519060200190610f44929190612489565b506060820151816003019080519060200190610f61929190612489565b506080820151816004015560a0820151816005015560c08201518160060160006101000a81548173ffffffffffffffffffffffffffffffffffffffff021916908373ffffffffffffffffffffffffffffffffffffffff16021790555060e08201518160070160006101000a81548173ffffffffffffffffffffffffffffffffffffffff021916908373ffffffffffffffffffffffffffffffffffffffff160217905550905050604051806080016040528060095481526020013373ffffffffffffffffffffffffffffffffffffffff1681526020013373ffffffffffffffffffffffffffffffffffffffff168152602001428152506005600060095481526020019081526020016000206000820151816000015560208201518160010160006101000a81548173ffffffffffffffffffffffffffffffffffffffff021916908373ffffffffffffffffffffffffffffffffffffffff16021790555060408201518160020160006101000a81548173ffffffffffffffffffffffffffffffffffffffff021916908373ffffffffffffffffffffffffffffffffffffffff16021790555060608201518160030155905050600560006009548152602001908152602001600020600460006003600060075481526020019081526020016000206004015481526020019081526020016000206000600360006007548152602001908152602001600020600501548152602001908152602001600020600082015481600001556001820160009054906101000a900473ffffffffffffffffffffffffffffffffffffffff168160010160006101000a81548173ffffffffffffffffffffffffffffffffffffffff021916908373ffffffffffffffffffffffffffffffffffffffff1602179055506002820160009054906101000a900473ffffffffffffffffffffffffffffffffffffffff168160020160006101000a81548173ffffffffffffffffffffffffffffffffffffffff021916908373ffffffffffffffffffffffffffffffffffffffff16021790555060038201548160030155905050505050565b803373ffffffffffffffffffffffffffffffffffffffff166003600083815260200190815260200160002060070160009054906101000a900473ffffffffffffffffffffffffffffffffffffffff1673ffffffffffffffffffffffffffffffffffffffff161461133b576040517f08c379a00000000000000000000000000000000000000000000000000000000081526004018080602001828103825260208152602001807f596f7520617265206e6f7420746865207061636b61676520726563696576657281525060200191505060405180910390fd5b6009600081548092919060010191905055506003600083815260200190815260200160002060050160008154809291906001019190505550336003600084815260200190815260200160002060060160006101000a81548173ffffffffffffffffffffffffffffffffffffffff021916908373ffffffffffffffffffffffffffffffffffffffff16021790555060006003600084815260200190815260200160002060070160006101000a81548173ffffffffffffffffffffffffffffffffffffffff021916908373ffffffffffffffffffffffffffffffffffffffff16021790555060405180608001604052806009548152602001600460006003600087815260200190815260200160002060040154815260200190815260200160002060006001600360008881526020019081526020016000206005015403815260200190815260200160002060020160009054906101000a900473ffffffffffffffffffffffffffffffffffffffff1673ffffffffffffffffffffffffffffffffffffffff1681526020013373ffffffffffffffffffffffffffffffffffffffff168152602001428152506005600060095481526020019081526020016000206000820151816000015560208201518160010160006101000a81548173ffffffffffffffffffffffffffffffffffffffff021916908373ffffffffffffffffffffffffffffffffffffffff16021790555060408201518160020160006101000a81548173ffffffffffffffffffffffffffffffffffffffff021916908373ffffffffffffffffffffffffffffffffffffffff160217905550606082015181600301559050506005600060095481526020019081526020016000206004600060036000868152602001908152602001600020600401548152602001908152602001600020600060036000868152602001908152602001600020600501548152602001908152602001600020600082015481600001556001820160009054906101000a900473ffffffffffffffffffffffffffffffffffffffff168160010160006101000a81548173ffffffffffffffffffffffffffffffffffffffff021916908373ffffffffffffffffffffffffffffffffffffffff1602179055506002820160009054906101000a900473ffffffffffffffffffffffffffffffffffffffff168160020160006101000a81548173ffffffffffffffffffffffffffffffffffffffff021916908373ffffffffffffffffffffffffffffffffffffffff160217905550600382015481600301559050505050565b60011515600160003373ffffffffffffffffffffffffffffffffffffffff1673ffffffffffffffffffffffffffffffffffffffff16815260200190815260200160002060020160019054906101000a900460ff161515146117b4576040517f08c379a00000000000000000000000000000000000000000000000000000000081526004018080602001828103825260158152602001807f596f7520617265206e6f742061206d656d6265722e000000000000000000000081525060200191505060405180910390fd5b81813373ffffffffffffffffffffffffffffffffffffffff166003600084815260200190815260200160002060060160009054906101000a900473ffffffffffffffffffffffffffffffffffffffff1673ffffffffffffffffffffffffffffffffffffffff1614801561188957508073ffffffffffffffffffffffffffffffffffffffff166003600084815260200190815260200160002060060160009054906101000a900473ffffffffffffffffffffffffffffffffffffffff1673ffffffffffffffffffffffffffffffffffffffff1614155b6118de576040517f08c379a00000000000000000000000000000000000000000000000000000000081526004018080602001828103825260308152602001806125f46030913960400191505060405180910390fd5b8260011515600160008373ffffffffffffffffffffffffffffffffffffffff1673ffffffffffffffffffffffffffffffffffffffff16815260200190815260200160002060020160019054906101000a900460ff1615151461198b576040517f08c379a00000000000000000000000000000000000000000000000000000000081526004018080602001828103825260298152602001806125a06029913960400191505060405180910390fd5b836003600087815260200190815260200160002060070160006101000a81548173ffffffffffffffffffffffffffffffffffffffff021916908373ffffffffffffffffffffffffffffffffffffffff1602179055505050505050565b600060011515600160003373ffffffffffffffffffffffffffffffffffffffff1673ffffffffffffffffffffffffffffffffffffffff16815260200190815260200160002060020160019054906101000a900460ff16151514611ab2576040517f08c379a00000000000000000000000000000000000000000000000000000000081526004018080602001828103825260158152602001807f596f7520617265206e6f742061206d656d6265722e000000000000000000000081525060200191505060405180910390fd5b600754905090565b60008060009054906101000a900473ffffffffffffffffffffffffffffffffffffffff1673ffffffffffffffffffffffffffffffffffffffff163373ffffffffffffffffffffffffffffffffffffffff1614611b7e576040517f08c379a00000000000000000000000000000000000000000000000000000000081526004018080602001828103825260158152602001807f596f7520617265206e6f7420746865206f776e6572000000000000000000000081525060200191505060405180910390fd5b600654905090565b60008060608060008060008060011515600160003373ffffffffffffffffffffffffffffffffffffffff1673ffffffffffffffffffffffffffffffffffffffff16815260200190815260200160002060020160019054906101000a900460ff16151514611c5b576040517f08c379a00000000000000000000000000000000000000000000000000000000081526004018080602001828103825260158152602001807f596f7520617265206e6f742061206d656d6265722e000000000000000000000081525060200191505060405180910390fd5b611c63612509565b600360008b8152602001908152602001600020604051806101000160405290816000820154815260200160018201548152602001600282018054600181600116156101000203166002900480601f016020809104026020016040519081016040528092919081815260200182805460018160011615610100020316600290048015611d2f5780601f10611d0457610100808354040283529160200191611d2f565b820191906000526020600020905b815481529060010190602001808311611d1257829003601f168201915b50505050508152602001600382018054600181600116156101000203166002900480601f016020809104026020016040519081016040528092919081815260200182805460018160011615610100020316600290048015611dd15780601f10611da657610100808354040283529160200191611dd1565b820191906000526020600020905b815481529060010190602001808311611db457829003601f168201915b5050505050815260200160048201548152602001600582015481526020016006820160009054906101000a900473ffffffffffffffffffffffffffffffffffffffff1673ffffffffffffffffffffffffffffffffffffffff1673ffffffffffffffffffffffffffffffffffffffff1681526020016007820160009054906101000a900473ffffffffffffffffffffffffffffffffffffffff1673ffffffffffffffffffffffffffffffffffffffff1673ffffffffffffffffffffffffffffffffffffffff16815250509050806000015181602001518260400151836060015184608001518560a001518660c001518760e001518595508494509850985098509850985098509850985050919395975091939597565b60001515600160003373ffffffffffffffffffffffffffffffffffffffff1673ffffffffffffffffffffffffffffffffffffffff16815260200190815260200160002060020160019054906101000a900460ff161515148015611f9c575060001515600160003373ffffffffffffffffffffffffffffffffffffffff1673ffffffffffffffffffffffffffffffffffffffff16815260200190815260200160002060020160029054906101000a900460ff161515145b611ff1576040517f08c379a000000000000000000000000000000000000000000000000000000000815260040180806020018281038252602b8152602001806125c9602b913960400191505060405180910390fd5b6006600081548092919060010191905055503360026000600654815260200190815260200160002060006101000a81548173ffffffffffffffffffffffffffffffffffffffff021916908373ffffffffffffffffffffffffffffffffffffffff1602179055506040518060a001604052803373ffffffffffffffffffffffffffffffffffffffff16815260200182815260200160018081111561209057fe5b600181111561209b57fe5b815260200160001515815260200160011515815250600160003373ffffffffffffffffffffffffffffffffffffffff1673ffffffffffffffffffffffffffffffffffffffff16815260200190815260200160002060008201518160000160006101000a81548173ffffffffffffffffffffffffffffffffffffffff021916908373ffffffffffffffffffffffffffffffffffffffff1602179055506020820151816001019080519060200190612152929190612489565b5060408201518160020160006101000a81548160ff0219169083600181111561217757fe5b021790555060608201518160020160016101000a81548160ff02191690831515021790555060808201518160020160026101000a81548160ff02191690831515021790555090505050565b6000809054906101000a900473ffffffffffffffffffffffffffffffffffffffff1673ffffffffffffffffffffffffffffffffffffffff163373ffffffffffffffffffffffffffffffffffffffff1614612284576040517f08c379a00000000000000000000000000000000000000000000000000000000081526004018080602001828103825260158152602001807f596f7520617265206e6f7420746865206f776e6572000000000000000000000081525060200191505060405180910390fd5b6000600160008373ffffffffffffffffffffffffffffffffffffffff1673ffffffffffffffffffffffffffffffffffffffff16815260200190815260200160002060020160016101000a81548160ff02191690831515021790555050565b60008060009054906101000a900473ffffffffffffffffffffffffffffffffffffffff1673ffffffffffffffffffffffffffffffffffffffff163373ffffffffffffffffffffffffffffffffffffffff16146123a6576040517f08c379a00000000000000000000000000000000000000000000000000000000081526004018080602001828103825260158152602001807f596f7520617265206e6f7420746865206f776e6572000000000000000000000081525060200191505060405180910390fd5b6002600083815260200190815260200160002060009054906101000a900473ffffffffffffffffffffffffffffffffffffffff169050919050565b604051806080016040528060008152602001600073ffffffffffffffffffffffffffffffffffffffff168152602001600073ffffffffffffffffffffffffffffffffffffffff168152602001600081525090565b6040518060a00160405280600073ffffffffffffffffffffffffffffffffffffffff168152602001606081526020016000600181111561247157fe5b81526020016000151581526020016000151581525090565b828054600181600116156101000203166002900490600052602060002090601f016020900481019282601f106124ca57805160ff19168380011785556124f8565b828001600101855582156124f8579182015b828111156124f75782518255916020019190600101906124dc565b5b509050612505919061257a565b5090565b604051806101000160405280600081526020016000815260200160608152602001606081526020016000815260200160008152602001600073ffffffffffffffffffffffffffffffffffffffff168152602001600073ffffffffffffffffffffffffffffffffffffffff1681525090565b61259c91905b80821115612598576000816000905550600101612580565b5090565b9056fe596f75206172652073656e64696e672061207061636b61676520746f2061206e6f6e2d6d656d626572596f75206172652061206d656d626572206f72206861732070656e64696e67206170706c69636174696f6e596f7520617265206e6f7420746865207061636b616765206f776e6572206f7220726570656174696e67206f776e6572a265627a7a72315820c78aad29559392464e0ca3aad939c11d17e59d032f1a7601eb488ab838718a4764736f6c63430005100032",
  "source": "pragma solidity ^0.5.0;\n\ncontract HerbalMedicine {\n\n  address owner; \n\n  enum AccountRole { \n    Owner,\n    Member\n  }\n\n  struct Account {\n    address accountAddress;\n    string name;\n    AccountRole role;\n    bool isMember;\n    bool isApplied;\n\n  }\n\n  struct Package {\n    uint256 key;\n    uint256 barcode;\n    string name;\n    string description;\n    uint256 historyKey;\n    uint256 transferCount;\n    address currentHandler;\n    address currentReciever;\n  }\n\n  struct Transfer {\n    uint256 key;\n    address source;\n    address destination;\n    uint256 time;\n  }\n\n  mapping(address => Account) accounts;\n  mapping(uint256 => address) allAccountAddresses;\n  mapping(uint256 => Package) packages;\n  mapping(uint256 => mapping(uint256 => Transfer)) history;\n  mapping(uint256 => Transfer) transfers;\n\n  uint256 accountCount;\n  uint256 packageCount;\n  uint256 historyCount;\n  uint256 transferCount;\n\n  modifier onlyGuest {\n    require(\n      accounts[msg.sender].isMember == false &&\n      accounts[msg.sender].isApplied == false, \n      \"You are a member or has pending application\");\n    _;\n  }\n\n  modifier onlyMember {\n    require(accounts[msg.sender].isMember == true, \"You are not a member.\");\n    _;\n  }\n\n  modifier onlyOwner() {\n    require(msg.sender == owner, \"You are not the owner\");\n    _;\n  }\n  \n  modifier onlyPackageHandler( uint256 _packageKey, address _packageReciever ) {\n    require( \n      packages[_packageKey].currentHandler == msg.sender && \n      packages[_packageKey].currentHandler != _packageReciever , \n      \"You are not the package owner or repeating owner\"\n    );\n    _;\n  }\n\n  modifier onlyWhenPackageRecieverIsMember( address _packageReciever ) {\n    require( \n      accounts[_packageReciever].isMember == true, \n      \"You are sending a package to a non-member\"\n    );\n    _;\n  }\n  \n  modifier onlyPackageReciever( uint256 _packageKey ) {\n    require( \n      packages[_packageKey].currentReciever == msg.sender,\n      \"You are not the package reciever\"\n    );\n    _;\n  }\n\n  constructor() public {\n    accountCount++;\n    owner = msg.sender;\n    accounts[msg.sender] = Account( msg.sender, \"Likhait\", AccountRole.Owner, true, true); \n    allAccountAddresses[accountCount] = msg.sender;\n  }\n\n  function registerAccount(\n    string memory _name \n  ) public onlyGuest {\n    accountCount++;\n    allAccountAddresses[accountCount] = msg.sender;\n    accounts[msg.sender] = Account( msg.sender, _name, AccountRole(1), false, true);\n  }\n\n  function getAccountCount() public onlyOwner view returns (uint256) {\n    return (accountCount);\n  }\n\n  function getAccountAddress(uint256 _addressKey) public onlyOwner view returns (\n    address accountAddress\n  ) {\n    return allAccountAddresses[_addressKey];\n  }\n\n  function allowAccount(\n    address _account\n  ) public onlyOwner {\n    accounts[_account].isMember = true;\n  }\n\n  function removeAccount(\n    address _account\n  ) public onlyOwner {\n    accounts[_account].isMember = false;\n  }\n\n  function getAccounts(address _address) public onlyMember view returns (\n    address accountAddress,\n    string memory name,\n    AccountRole role,\n    bool isMember\n  ) {\n    Account memory _account = accounts[_address];\n    return (_account.accountAddress, _account.name, _account.role, _account.isMember);\n  } \n  \n  function getPackageCount() public onlyMember view returns (uint256) {\n    return (packageCount);\n  }\n\n  function getPackage(uint256 _packageKey) public onlyMember view returns (\n    uint256 _key,\n    uint256 _barcode,\n    string memory _name,\n    string memory _description,\n    uint256 _historyKey,\n    uint256 _transferCount,\n    address currentHandler,\n    address currentReciever\n  ) {\n    Package memory _package = packages[_packageKey];\n    return (\n      _package.key,\n      _package.barcode,\n      _package.name,\n      _package.description,\n      _package.historyKey,\n      _package.transferCount,\n      _package.currentHandler,\n      _package.currentReciever\n    );\n  }\n\n  function getTransfer(\n    uint256 _historyKey,\n    uint256 _transferKey\n  ) public onlyMember view returns (address source, address destination, uint256 _time) {\n    Transfer memory _transfer = transfers[history[_historyKey][_transferKey].key];\n    return (_transfer.source, _transfer.destination, _transfer.time);\n  } \n\n  function createPackage(\n    uint256 _barcode,\n    string memory _name,\n    string memory _description\n  ) public onlyMember {\n    historyCount++;\n    packageCount++;\n    transferCount++;\n    packages[packageCount] = Package(packageCount, _barcode, _name, _description, historyCount, 1, msg.sender, address(0));\n    transfers[transferCount] = Transfer( transferCount, msg.sender, msg.sender, block.timestamp );\n    history[packages[packageCount].historyKey][packages[packageCount].transferCount] = transfers[transferCount];\n  }\n  \n  function sendPackage( \n    uint256 _packageKey, \n    address _packageReciever\n  ) public \n    onlyMember \n    onlyPackageHandler( _packageKey, _packageReciever )\n    onlyWhenPackageRecieverIsMember( _packageReciever ) {\n    packages[_packageKey].currentReciever = _packageReciever;\n  }\n\n  function recievePackage( uint256 _packageKey ) public onlyPackageReciever( _packageKey ) {\n    transferCount++;\n    packages[_packageKey].transferCount++;\n    packages[_packageKey].currentHandler = msg.sender;\n    packages[_packageKey].currentReciever = address(0);\n    transfers[transferCount] = Transfer(\n      transferCount,\n      history[packages[_packageKey].historyKey][packages[_packageKey].transferCount - 1].destination,\n      msg.sender,\n      block.timestamp\n    );\n    history[packages[_packageKey].historyKey][packages[_packageKey].transferCount] = transfers[transferCount];\n  } \n}",
  "sourcePath": "/home/nitro/work/likhait/blockchain/medprototype/contracts/HerbalMedicine.sol",
  "compiler": {
    "name": "solc",
    "version": "0.5.16+commit.9c3226ce.Emscripten.clang"
  },
  "schemaVersion": "3.3.4",
  "updatedAt": "2021-03-02T02:09:20.101Z",
  "networkType": "ethereum",
  "devdoc": {
    "methods": {}
  },
  "userdoc": {
    "methods": {}
  }
}