{
  "contractName": "NestedStruct",
  "abi": [
    {
      "inputs": [],
      "payable": false,
      "stateMutability": "nonpayable",
      "type": "constructor"
    },
    {
      "constant": true,
      "inputs": [],
      "name": "ownerAccount",
      "outputs": [
        {
          "internalType": "address",
          "name": "accountAddress",
          "type": "address"
        },
        {
          "internalType": "string",
          "name": "name",
          "type": "string"
        },
        {
          "internalType": "enum NestedStruct.AccountRole",
          "name": "role",
          "type": "uint8"
        },
        {
          "internalType": "bool",
          "name": "isApproved",
          "type": "bool"
        }
      ],
      "payable": false,
      "stateMutability": "view",
      "type": "function"
    },
    {
      "constant": true,
      "inputs": [],
      "name": "getAccountCount",
      "outputs": [
        {
          "internalType": "uint256",
          "name": "",
          "type": "uint256"
        }
      ],
      "payable": false,
      "stateMutability": "view",
      "type": "function"
    },
    {
      "constant": true,
      "inputs": [
        {
          "internalType": "address",
          "name": "_address",
          "type": "address"
        }
      ],
      "name": "getAccounts",
      "outputs": [
        {
          "internalType": "address",
          "name": "accountAddress",
          "type": "address"
        },
        {
          "internalType": "string",
          "name": "name",
          "type": "string"
        },
        {
          "internalType": "enum NestedStruct.AccountRole",
          "name": "role",
          "type": "uint8"
        },
        {
          "internalType": "bool",
          "name": "isApproved",
          "type": "bool"
        }
      ],
      "payable": false,
      "stateMutability": "view",
      "type": "function"
    },
    {
      "constant": true,
      "inputs": [
        {
          "internalType": "uint256",
          "name": "_addressKey",
          "type": "uint256"
        }
      ],
      "name": "getAllAccountAddresses",
      "outputs": [
        {
          "internalType": "address",
          "name": "accountAddress",
          "type": "address"
        }
      ],
      "payable": false,
      "stateMutability": "view",
      "type": "function"
    },
    {
      "constant": true,
      "inputs": [
        {
          "internalType": "uint256",
          "name": "_packageKey",
          "type": "uint256"
        }
      ],
      "name": "getPackages",
      "outputs": [
        {
          "internalType": "uint256",
          "name": "_key",
          "type": "uint256"
        },
        {
          "internalType": "uint256",
          "name": "_barcode",
          "type": "uint256"
        },
        {
          "internalType": "string",
          "name": "_name",
          "type": "string"
        },
        {
          "internalType": "string",
          "name": "_description",
          "type": "string"
        },
        {
          "internalType": "uint256",
          "name": "_historyKey",
          "type": "uint256"
        },
        {
          "internalType": "uint256",
          "name": "_transferCount",
          "type": "uint256"
        }
      ],
      "payable": false,
      "stateMutability": "view",
      "type": "function"
    },
    {
      "constant": false,
      "inputs": [
        {
          "internalType": "string",
          "name": "_name",
          "type": "string"
        },
        {
          "internalType": "uint8",
          "name": "_role",
          "type": "uint8"
        }
      ],
      "name": "registerAccount",
      "outputs": [],
      "payable": false,
      "stateMutability": "nonpayable",
      "type": "function"
    },
    {
      "constant": false,
      "inputs": [
        {
          "internalType": "address",
          "name": "_account",
          "type": "address"
        }
      ],
      "name": "allowAccount",
      "outputs": [],
      "payable": false,
      "stateMutability": "nonpayable",
      "type": "function"
    },
    {
      "constant": false,
      "inputs": [
        {
          "internalType": "uint256",
          "name": "_barcode",
          "type": "uint256"
        },
        {
          "internalType": "string",
          "name": "_name",
          "type": "string"
        },
        {
          "internalType": "string",
          "name": "_description",
          "type": "string"
        }
      ],
      "name": "addPackage",
      "outputs": [],
      "payable": false,
      "stateMutability": "nonpayable",
      "type": "function"
    },
    {
      "constant": false,
      "inputs": [
        {
          "internalType": "uint256",
          "name": "_packageKey",
          "type": "uint256"
        }
      ],
      "name": "recievePackage",
      "outputs": [],
      "payable": false,
      "stateMutability": "nonpayable",
      "type": "function"
    },
    {
      "constant": true,
      "inputs": [
        {
          "internalType": "uint256",
          "name": "_historyKey",
          "type": "uint256"
        },
        {
          "internalType": "uint256",
          "name": "_transferKey",
          "type": "uint256"
        }
      ],
      "name": "getTransfer",
      "outputs": [
        {
          "internalType": "address",
          "name": "source",
          "type": "address"
        },
        {
          "internalType": "address",
          "name": "destination",
          "type": "address"
        },
        {
          "internalType": "uint256",
          "name": "_time",
          "type": "uint256"
        }
      ],
      "payable": false,
      "stateMutability": "view",
      "type": "function"
    }
  ],
  "bytecode": "0x60806040523480156200001157600080fd5b50600960008154809291906001019190505550336000806101000a81548173ffffffffffffffffffffffffffffffffffffffff021916908373ffffffffffffffffffffffffffffffffffffffff16021790555060405180608001604052803373ffffffffffffffffffffffffffffffffffffffff1681526020016040518060400160405280600781526020017f4c696b68616974000000000000000000000000000000000000000000000000008152508152602001600380811115620000d357fe5b815260200160011515815250600460003373ffffffffffffffffffffffffffffffffffffffff1673ffffffffffffffffffffffffffffffffffffffff16815260200190815260200160002060008201518160000160006101000a81548173ffffffffffffffffffffffffffffffffffffffff021916908373ffffffffffffffffffffffffffffffffffffffff16021790555060208201518160010190805190602001906200018392919062000364565b5060408201518160020160006101000a81548160ff02191690836003811115620001a957fe5b021790555060608201518160020160016101000a81548160ff021916908315150217905550905050600460003373ffffffffffffffffffffffffffffffffffffffff1673ffffffffffffffffffffffffffffffffffffffff16815260200190815260200160002060016000820160009054906101000a900473ffffffffffffffffffffffffffffffffffffffff168160000160006101000a81548173ffffffffffffffffffffffffffffffffffffffff021916908373ffffffffffffffffffffffffffffffffffffffff16021790555060018201816001019080546001816001161561010002031660029004620002a2929190620003eb565b506002820160009054906101000a900460ff168160020160006101000a81548160ff02191690836003811115620002d557fe5b02179055506002820160019054906101000a900460ff168160020160016101000a81548160ff0219169083151502179055509050503360056000600954815260200190815260200160002060006101000a81548173ffffffffffffffffffffffffffffffffffffffff021916908373ffffffffffffffffffffffffffffffffffffffff160217905550620004a1565b828054600181600116156101000203166002900490600052602060002090601f016020900481019282601f10620003a757805160ff1916838001178555620003d8565b82800160010185558215620003d8579182015b82811115620003d7578251825591602001919060010190620003ba565b5b509050620003e7919062000479565b5090565b828054600181600116156101000203166002900490600052602060002090601f016020900481019282601f1062000426578054855562000466565b828001600101855582156200046657600052602060002091601f016020900482015b828111156200046557825482559160010191906001019062000448565b5b50905062000475919062000479565b5090565b6200049e91905b808211156200049a57600081600090555060010162000480565b5090565b90565b611d9880620004b16000396000f3fe608060405234801561001057600080fd5b506004361061009e5760003560e01c8063a98e4e7711610066578063a98e4e7714610406578063b981e3a514610424578063d2f545fc14610580578063ea47cb24146105ee578063fdf6f5c8146106c45761009e565b8063025fb963146100a35780631acc948c146101555780633100ceb514610199578063571dfa7b146102a9578063853b66a0146102d7575b600080fd5b6100d9600480360360408110156100b957600080fd5b81019080803590602001909291908035906020019092919050505061078c565b604051808473ffffffffffffffffffffffffffffffffffffffff1673ffffffffffffffffffffffffffffffffffffffff1681526020018373ffffffffffffffffffffffffffffffffffffffff1673ffffffffffffffffffffffffffffffffffffffff168152602001828152602001935050505060405180910390f35b6101976004803603602081101561016b57600080fd5b81019080803573ffffffffffffffffffffffffffffffffffffffff16906020019092919050505061097f565b005b6101db600480360360208110156101af57600080fd5b81019080803573ffffffffffffffffffffffffffffffffffffffff169060200190929190505050610a9f565b604051808573ffffffffffffffffffffffffffffffffffffffff1673ffffffffffffffffffffffffffffffffffffffff1681526020018060200184600381111561022157fe5b60ff16815260200183151515158152602001828103825285818151815260200191508051906020019080838360005b8381101561026b578082015181840152602081019050610250565b50505050905090810190601f1680156102985780820380516001836020036101000a031916815260200191505b509550505050505060405180910390f35b6102d5600480360360208110156102bf57600080fd5b8101908080359060200190929190505050610d23565b005b610303600480360360208110156102ed57600080fd5b81019080803590602001909291905050506110e9565b604051808781526020018681526020018060200180602001858152602001848152602001838103835287818151815260200191508051906020019080838360005b8381101561035f578082015181840152602081019050610344565b50505050905090810190601f16801561038c5780820380516001836020036101000a031916815260200191505b50838103825286818151815260200191508051906020019080838360005b838110156103c55780820151818401526020810190506103aa565b50505050905090810190601f1680156103f25780820380516001836020036101000a031916815260200191505b509850505050505050505060405180910390f35b61040e611382565b6040518082815260200191505060405180910390f35b61057e6004803603606081101561043a57600080fd5b81019080803590602001909291908035906020019064010000000081111561046157600080fd5b82018360208201111561047357600080fd5b8035906020019184600183028401116401000000008311171561049557600080fd5b91908080601f016020809104026020016040519081016040528093929190818152602001838380828437600081840152601f19601f820116905080830192505050505050509192919290803590602001906401000000008111156104f857600080fd5b82018360208201111561050a57600080fd5b8035906020019184600183028401116401000000008311171561052c57600080fd5b91908080601f016020809104026020016040519081016040528093929190818152602001838380828437600081840152601f19601f82011690508083019250505050505050919291929050505061144e565b005b6105ac6004803603602081101561059657600080fd5b810190808035906020019092919050505061184e565b604051808273ffffffffffffffffffffffffffffffffffffffff1673ffffffffffffffffffffffffffffffffffffffff16815260200191505060405180910390f35b6105f661194d565b604051808573ffffffffffffffffffffffffffffffffffffffff1673ffffffffffffffffffffffffffffffffffffffff1681526020018060200184600381111561063c57fe5b60ff16815260200183151515158152602001828103825285818151815260200191508051906020019080838360005b8381101561068657808201518184015260208101905061066b565b50505050905090810190601f1680156106b35780820380516001836020036101000a031916815260200191505b509550505050505060405180910390f35b61078a600480360360408110156106da57600080fd5b81019080803590602001906401000000008111156106f757600080fd5b82018360208201111561070957600080fd5b8035906020019184600183028401116401000000008311171561072b57600080fd5b91908080601f016020809104026020016040519081016040528093929190818152602001838380828437600081840152601f19601f820116905080830192505050505050509192919290803560ff169060200190929190505050611a3d565b005b6000806000600460003373ffffffffffffffffffffffffffffffffffffffff1673ffffffffffffffffffffffffffffffffffffffff16815260200190815260200160002060020160019054906101000a900460ff16610853576040517f08c379a00000000000000000000000000000000000000000000000000000000081526004018080602001828103825260178152602001807f596f7520617265206e6f7420726567697374657265642e00000000000000000081525060200191505060405180910390fd5b61085b611be9565b60086000600760008981526020019081526020016000206000888152602001908152602001600020600001548152602001908152602001600020604051806080016040529081600082015481526020016001820160009054906101000a900473ffffffffffffffffffffffffffffffffffffffff1673ffffffffffffffffffffffffffffffffffffffff1673ffffffffffffffffffffffffffffffffffffffff1681526020016002820160009054906101000a900473ffffffffffffffffffffffffffffffffffffffff1673ffffffffffffffffffffffffffffffffffffffff1673ffffffffffffffffffffffffffffffffffffffff1681526020016003820154815250509050806020015181604001518260600151935093509350509250925092565b6000809054906101000a900473ffffffffffffffffffffffffffffffffffffffff1673ffffffffffffffffffffffffffffffffffffffff163373ffffffffffffffffffffffffffffffffffffffff1614610a41576040517f08c379a00000000000000000000000000000000000000000000000000000000081526004018080602001828103825260158152602001807f596f7520617265206e6f7420746865206f776e6572000000000000000000000081525060200191505060405180910390fd5b6001600460008373ffffffffffffffffffffffffffffffffffffffff1673ffffffffffffffffffffffffffffffffffffffff16815260200190815260200160002060020160016101000a81548160ff02191690831515021790555050565b60006060600080600460003373ffffffffffffffffffffffffffffffffffffffff1673ffffffffffffffffffffffffffffffffffffffff16815260200190815260200160002060020160019054906101000a900460ff16610b68576040517f08c379a00000000000000000000000000000000000000000000000000000000081526004018080602001828103825260178152602001807f596f7520617265206e6f7420726567697374657265642e00000000000000000081525060200191505060405180910390fd5b610b70611c3d565b600460008773ffffffffffffffffffffffffffffffffffffffff1673ffffffffffffffffffffffffffffffffffffffff1681526020019081526020016000206040518060800160405290816000820160009054906101000a900473ffffffffffffffffffffffffffffffffffffffff1673ffffffffffffffffffffffffffffffffffffffff1673ffffffffffffffffffffffffffffffffffffffff168152602001600182018054600181600116156101000203166002900480601f016020809104026020016040519081016040528092919081815260200182805460018160011615610100020316600290048015610ca95780601f10610c7e57610100808354040283529160200191610ca9565b820191906000526020600020905b815481529060010190602001808311610c8c57829003601f168201915b505050505081526020016002820160009054906101000a900460ff166003811115610cd057fe5b6003811115610cdb57fe5b81526020016002820160019054906101000a900460ff161515151581525050905080600001518160200151826040015183606001518292509450945094509450509193509193565b600460003373ffffffffffffffffffffffffffffffffffffffff1673ffffffffffffffffffffffffffffffffffffffff16815260200190815260200160002060020160019054906101000a900460ff16610de5576040517f08c379a00000000000000000000000000000000000000000000000000000000081526004018080602001828103825260178152602001807f596f7520617265206e6f7420726567697374657265642e00000000000000000081525060200191505060405180910390fd5b600c6000815480929190600101919050555060066000828152602001908152602001600020600501600081548092919060010191905055506040518060800160405280600c548152602001600760006006600086815260200190815260200160002060040154815260200190815260200160002060006001600660008781526020019081526020016000206005015403815260200190815260200160002060020160009054906101000a900473ffffffffffffffffffffffffffffffffffffffff1673ffffffffffffffffffffffffffffffffffffffff1681526020013373ffffffffffffffffffffffffffffffffffffffff1681526020014281525060086000600c5481526020019081526020016000206000820151816000015560208201518160010160006101000a81548173ffffffffffffffffffffffffffffffffffffffff021916908373ffffffffffffffffffffffffffffffffffffffff16021790555060408201518160020160006101000a81548173ffffffffffffffffffffffffffffffffffffffff021916908373ffffffffffffffffffffffffffffffffffffffff1602179055506060820151816003015590505060086000600c5481526020019081526020016000206007600060066000858152602001908152602001600020600401548152602001908152602001600020600060066000858152602001908152602001600020600501548152602001908152602001600020600082015481600001556001820160009054906101000a900473ffffffffffffffffffffffffffffffffffffffff168160010160006101000a81548173ffffffffffffffffffffffffffffffffffffffff021916908373ffffffffffffffffffffffffffffffffffffffff1602179055506002820160009054906101000a900473ffffffffffffffffffffffffffffffffffffffff168160020160006101000a81548173ffffffffffffffffffffffffffffffffffffffff021916908373ffffffffffffffffffffffffffffffffffffffff1602179055506003820154816003015590505050565b600080606080600080600460003373ffffffffffffffffffffffffffffffffffffffff1673ffffffffffffffffffffffffffffffffffffffff16815260200190815260200160002060020160019054906101000a900460ff166111b4576040517f08c379a00000000000000000000000000000000000000000000000000000000081526004018080602001828103825260178152602001807f596f7520617265206e6f7420726567697374657265642e00000000000000000081525060200191505060405180910390fd5b6111bc611c88565b600660008981526020019081526020016000206040518060c00160405290816000820154815260200160018201548152602001600282018054600181600116156101000203166002900480601f0160208091040260200160405190810160405280929190818152602001828054600181600116156101000203166002900480156112875780601f1061125c57610100808354040283529160200191611287565b820191906000526020600020905b81548152906001019060200180831161126a57829003601f168201915b50505050508152602001600382018054600181600116156101000203166002900480601f0160208091040260200160405190810160405280929190818152602001828054600181600116156101000203166002900480156113295780601f106112fe57610100808354040283529160200191611329565b820191906000526020600020905b81548152906001019060200180831161130c57829003601f168201915b50505050508152602001600482015481526020016005820154815250509050806000015181602001518260400151836060015184608001518560a001518393508292509650965096509650965096505091939550919395565b60008060009054906101000a900473ffffffffffffffffffffffffffffffffffffffff1673ffffffffffffffffffffffffffffffffffffffff163373ffffffffffffffffffffffffffffffffffffffff1614611446576040517f08c379a00000000000000000000000000000000000000000000000000000000081526004018080602001828103825260158152602001807f596f7520617265206e6f7420746865206f776e6572000000000000000000000081525060200191505060405180910390fd5b600954905090565b600460003373ffffffffffffffffffffffffffffffffffffffff1673ffffffffffffffffffffffffffffffffffffffff16815260200190815260200160002060020160019054906101000a900460ff16611510576040517f08c379a00000000000000000000000000000000000000000000000000000000081526004018080602001828103825260178152602001807f596f7520617265206e6f7420726567697374657265642e00000000000000000081525060200191505060405180910390fd5b600b60008154809291906001019190505550600a60008154809291906001019190505550600c600081548092919060010191905055506040518060c00160405280600a548152602001848152602001838152602001828152602001600b548152602001600181525060066000600a548152602001908152602001600020600082015181600001556020820151816001015560408201518160020190805190602001906115bd929190611cbe565b5060608201518160030190805190602001906115da929190611cbe565b506080820151816004015560a082015181600501559050506040518060800160405280600c5481526020013373ffffffffffffffffffffffffffffffffffffffff1681526020013373ffffffffffffffffffffffffffffffffffffffff1681526020014281525060086000600c5481526020019081526020016000206000820151816000015560208201518160010160006101000a81548173ffffffffffffffffffffffffffffffffffffffff021916908373ffffffffffffffffffffffffffffffffffffffff16021790555060408201518160020160006101000a81548173ffffffffffffffffffffffffffffffffffffffff021916908373ffffffffffffffffffffffffffffffffffffffff1602179055506060820151816003015590505060086000600c5481526020019081526020016000206007600060066000600a548152602001908152602001600020600401548152602001908152602001600020600060066000600a548152602001908152602001600020600501548152602001908152602001600020600082015481600001556001820160009054906101000a900473ffffffffffffffffffffffffffffffffffffffff168160010160006101000a81548173ffffffffffffffffffffffffffffffffffffffff021916908373ffffffffffffffffffffffffffffffffffffffff1602179055506002820160009054906101000a900473ffffffffffffffffffffffffffffffffffffffff168160020160006101000a81548173ffffffffffffffffffffffffffffffffffffffff021916908373ffffffffffffffffffffffffffffffffffffffff16021790555060038201548160030155905050505050565b60008060009054906101000a900473ffffffffffffffffffffffffffffffffffffffff1673ffffffffffffffffffffffffffffffffffffffff163373ffffffffffffffffffffffffffffffffffffffff1614611912576040517f08c379a00000000000000000000000000000000000000000000000000000000081526004018080602001828103825260158152602001807f596f7520617265206e6f7420746865206f776e6572000000000000000000000081525060200191505060405180910390fd5b6005600083815260200190815260200160002060009054906101000a900473ffffffffffffffffffffffffffffffffffffffff169050919050565b60018060000160009054906101000a900473ffffffffffffffffffffffffffffffffffffffff1690806001018054600181600116156101000203166002900480601f016020809104026020016040519081016040528092919081815260200182805460018160011615610100020316600290048015611a0d5780601f106119e257610100808354040283529160200191611a0d565b820191906000526020600020905b8154815290600101906020018083116119f057829003601f168201915b5050505050908060020160009054906101000a900460ff16908060020160019054906101000a900460ff16905084565b6009600081548092919060010191905055503360056000600954815260200190815260200160002060006101000a81548173ffffffffffffffffffffffffffffffffffffffff021916908373ffffffffffffffffffffffffffffffffffffffff16021790555060405180608001604052803373ffffffffffffffffffffffffffffffffffffffff1681526020018381526020018260ff166003811115611adf57fe5b6003811115611aea57fe5b815260200160001515815250600460003373ffffffffffffffffffffffffffffffffffffffff1673ffffffffffffffffffffffffffffffffffffffff16815260200190815260200160002060008201518160000160006101000a81548173ffffffffffffffffffffffffffffffffffffffff021916908373ffffffffffffffffffffffffffffffffffffffff1602179055506020820151816001019080519060200190611b98929190611cbe565b5060408201518160020160006101000a81548160ff02191690836003811115611bbd57fe5b021790555060608201518160020160016101000a81548160ff0219169083151502179055509050505050565b604051806080016040528060008152602001600073ffffffffffffffffffffffffffffffffffffffff168152602001600073ffffffffffffffffffffffffffffffffffffffff168152602001600081525090565b6040518060800160405280600073ffffffffffffffffffffffffffffffffffffffff1681526020016060815260200160006003811115611c7957fe5b81526020016000151581525090565b6040518060c001604052806000815260200160008152602001606081526020016060815260200160008152602001600081525090565b828054600181600116156101000203166002900490600052602060002090601f016020900481019282601f10611cff57805160ff1916838001178555611d2d565b82800160010185558215611d2d579182015b82811115611d2c578251825591602001919060010190611d11565b5b509050611d3a9190611d3e565b5090565b611d6091905b80821115611d5c576000816000905550600101611d44565b5090565b9056fea265627a7a723158202e4bb1f2af593aa0ae5d902779cd17d81942e782b1d33fe918e630a7b52600da64736f6c63430005100032",
  "source": "pragma solidity ^0.5.0;\n\ncontract NestedStruct {\n\n    address owner;\n\n    Account public ownerAccount;\n\n    enum AccountRole {\n        Producer,\n        WholeSaler,\n        Retailer,\n        Owner\n    }\n\n    struct Account {\n        address accountAddress;\n        string name;\n        AccountRole role;\n        bool isApproved;\n    }\n\n    struct Package {\n        uint256 key;\n        uint256 barcode;\n        string name;\n        string description;\n        uint256 historyKey;\n        uint256 transferCount;\n    }\n\n    struct Transfer {\n        uint256 key;\n        address source;\n        address destination;\n        uint256 time;\n    }\n\n    mapping(address => Account) accounts;\n    mapping(uint256 => address) allAccountAddresses;\n    mapping(uint256 => Package) packages;\n    mapping(uint256 => mapping(uint256 => Transfer)) history;\n    mapping(uint256 => Transfer) transfers;\n\n    uint256 accountCount;\n    uint256 packageCount;\n    uint256 historyCount;\n    uint256 transferCount;\n\n    function getAccountCount() public onlyOwner view returns (uint256) {\n        return (accountCount);\n    }\n\n    function getAccounts(address _address) public onlyApproved view returns (\n        address accountAddress,\n        string memory name,\n        AccountRole role,\n        bool isApproved\n    ) {\n        Account memory _account = accounts[_address];\n        return (_account.accountAddress, _account.name, _account.role, _account.isApproved);\n    }\n\n    function getAllAccountAddresses(uint256 _addressKey) public onlyOwner view returns (\n        address accountAddress\n    ) {\n        return allAccountAddresses[_addressKey];\n    }\n\n    function getPackages(uint256 _packageKey) public onlyApproved view returns (\n        uint256 _key,\n        uint256 _barcode,\n        string memory _name,\n        string memory _description,\n        uint256 _historyKey,\n        uint256 _transferCount\n    ) {\n        Package memory _package = packages[_packageKey];\n        return (\n            _package.key,\n            _package.barcode,\n            _package.name,\n            _package.description,\n            _package.historyKey,\n            _package.transferCount\n        );\n    }\n\n    modifier onlyApproved {\n        require(accounts[msg.sender].isApproved, \"You are not registered.\");\n        _;\n    }\n\n    modifier onlyOwner() {\n        require(msg.sender == owner, \"You are not the owner\");\n        _;\n    }\n\n    constructor() public {\n        accountCount++;\n        owner = msg.sender;\n        accounts[msg.sender] = Account( msg.sender, \"Likhait\", AccountRole.Owner, true);\n        ownerAccount = accounts[msg.sender];\n        allAccountAddresses[accountCount] = msg.sender;\n    }\n\n    function registerAccount(\n        string memory _name,\n        uint8 _role\n    ) public {\n        accountCount++;\n        allAccountAddresses[accountCount] = msg.sender;\n        accounts[msg.sender] = Account( msg.sender, _name, AccountRole(_role), false);\n    }\n\n    function allowAccount(\n        address _account\n    ) public onlyOwner {\n        accounts[_account].isApproved = true;\n    }\n\n    function addPackage(\n        uint256 _barcode,\n        string memory _name,\n        string memory _description\n    ) public onlyApproved {\n        historyCount++;\n        packageCount++;\n        transferCount++;\n        packages[packageCount] = Package(packageCount, _barcode, _name, _description, historyCount, 1);\n        transfers[transferCount] = Transfer( transferCount, msg.sender, msg.sender, block.timestamp );\n        history[packages[packageCount].historyKey][packages[packageCount].transferCount] = transfers[transferCount];\n    }\n\n    function recievePackage( uint256 _packageKey ) public onlyApproved {\n        transferCount++;\n        packages[_packageKey].transferCount++;\n        transfers[transferCount] = Transfer(\n            transferCount,\n            history[packages[_packageKey].historyKey][packages[_packageKey].transferCount - 1].destination,\n            msg.sender,\n            block.timestamp\n        );\n        history[packages[_packageKey].historyKey][packages[_packageKey].transferCount] = transfers[transferCount];\n    }\n\n    function getTransfer(\n        uint256 _historyKey,\n        uint256 _transferKey\n    ) public onlyApproved view returns (address source, address destination, uint256 _time) {\n        Transfer memory _transfer = transfers[history[_historyKey][_transferKey].key];\n        return (_transfer.source, _transfer.destination, _transfer.time);\n    }\n    \n}",
  "sourcePath": "/home/nitro/work/likhait/blockchain/medprototype/contracts/NestedStruct.sol",
  "compiler": {
    "name": "solc",
    "version": "0.5.16+commit.9c3226ce.Emscripten.clang"
  },
  "schemaVersion": "3.3.4",
  "updatedAt": "2021-02-17T03:46:28.471Z",
  "devdoc": {
    "methods": {}
  },
  "userdoc": {
    "methods": {}
  }
}